:200000000C94BE030C94E6030C94E6030C94E6030C94E6030C94E6030C94E6030C94E603C0
:200020000C94E6030C94E6030C94441B0C94C11B0C94E6030C94E6030C94E6030C94E6030F
:200040000C94E6030C94E6030C94E6030C94E6030C94E6030C94E6030C94E6030C94F31D31
:200060000C94E6030C94E6030C94E6030C94E6030C94E6030C94E6030C94E6030C94E60338
:200080000C94E6030C94E6030C94E6030C94E6030C943D1E0C94E6030C94E6030C94E603A6
:2000A0000C94E6030C94E6030C94E60300000000003E5B4F5B3E3E6B4F6B3E1C3E7C3E1C53
:2000C000183C7E3C181C577D571C1C5E7F5E1C00183C1800FFE7C3E7FF0018241800FFE7EF
:2000E000DBE7FF30483A060E2629792926407F050507407F05253F5A3CE73C5A7F3E1C1C62
:2001000008081C1C3E7F14227F22145F5F005F5F06097F017F006689956A60606060609403
:20012000A2FFA29408047E040810207E201008082A1C08081C2A08081E101010100C1E0C24
:200140001E0C30383E3830060E3E0E06000000000000005F00000007000700147F147F145A
:20016000242A7F2A12231308646236495620500008070300001C2241000041221C002A1CD7
:200180007F1C2A08083E080800807030000808080808000060600020100804023E514945D9
:2001A0003E00427F400072494949462141494D331814127F1027454545393C4A49493141BC
:2001C000211109073649494936464949291E00001400000040340000000814224114141434
:2001E0001414004122140802015909063E415D594E7C1211127C7F494949363E414141228A
:200200007F4141413E7F494949417F090909013E414151737F0808087F00417F410020402D
:20022000413F017F081422417F404040407F021C027F7F0408107F3E4141413E7F090909AF
:20024000063E4151215E7F09192946264949493203017F01033F4040403F1F2040201F3F44
:200260004038403F631408146303047804036159494D43007F414141020408102000414176
:20028000417F04020102044040404040000307080020545478407F2844443838444444282C
:2002A000384444287F385454541800087E090218A4A49C787F0804047800447D400020401E
:2002C000403D007F1028440000417F40007C047804787C080404783844444438FC18242496
:2002E0001818242418FC7C08040408485454542404043F44243C4040207C1C2040201C3C7B
:200300004030403C44281028444C9090907C4464544C440008364100000077000000413698
:20032000080002010204023C2623263C1EA1A161123A4040207A3854545559215555794189
:200340002254547842215554784020545579400C1E52721239555555593954545459395568
:200360005454580000457C410002457D420001457C407D1211127DF0282528F07C54554585
:20038000002054547C547C0A097F4932494949323A4444443A324A4848303A4141217A3A22
:2003A00042402078009DA0A07D3D4242423D3D4040403D3C24FF2424487E4943662B2FFC9A
:2003C0002F2BFF0929F620C0887E090320545479410000447D413048484A32384040227A96
:2003E000007A0A0A727D0D19317D2629292F28262929292630484D40203808080808080889
:200400000808382F10C8ACBA2F102834FA00007B000008142A142222142A14085500550075
:2004200055AA55AA55AAFF55FF55FF000000FF00101010FF00141414FF001010FF00FF1081
:2004400010F010F0141414FC001414F700FF0000FF00FF1414F404FC141417101F10101F7F
:20046000101F1414141F00101010F0000000001F101010101F10101010F010000000FF1005
:200480001010101010101010FF10000000FF140000FF00FF00001F10170000FC04F414145A
:2004A0001710171414F404F40000FF00F714141414141414F700F7141414171410101F10C4
:2004C0001F141414F4141010F010F000001F101F0000001F14000000FC140000F010F01018
:2004E00010FF10FF141414FF141010101F00000000F010FFFFFFFFFFF0F0F0F0F0FFFFFF98
:200500000000000000FFFF0F0F0F0F0F3844443844FC4A4A4A347E02020606027E027E02B8
:2005200063554941633844443C04407E201E2006027E020299A5E7A5991C2A492A1C4C727A
:2005400001724C304A4D4D303048784830BC625A463D3E494949007E0101017E2A2A2A2A75
:200560002A44445F444440514A444040444A51400000FF0103E080FF000008086B6B08369E
:2005800012362436060F090F06000018180000001010003040FF0101001F01011E00191D50
:2005A0001712003C3C3C3C000000000000000000000000002A2B28000000000000000000A5
:2005C0000000000000000000000000002C9EB4A0A1A2A434A6A7A5AE362D3738271E1F20EC
:2005E000212223242526B333B62EB7B89F8485868788898A8B8C8D8E8F90919293949596D7
:200600009798999A9B9C9D2F3130A3AD350405060708090A0B0C0D0E0F1011121314151698
:200620001718191A1B1C1DAFB1B0B5001F1C1F1E1F1E1F1F1E1F1E0000000023002600297F
:20064000002C002F000000000200090F0000030401000C0000000000000000000000000011
:2006600000000000080B0002020200000904000001020200000524001001052401010104E5
:2006800024020605240600010705810310004009040100020A0000000705020240000007AD
:2006A0000583024000000403090412010002EF020140412336800001010203014172647567
:2006C000696E6F204C4C430041726475696E6F204C656F6E6172646F000000000024002768
:2006E000002A002D00300031393A33313A3332004A616E2031312032303231000501090637
:20070000A1018502050719E029E71500250175019508810295017508810395067508150006
:2007200025730507190029738100C004080201104080401020408040800802040180402061
:200740001002011080102040402000000000250028002B002E00310004040404040304052F
:200760000202020204030202020206060606060604040202020404008F1FEF2B11241FBE4E
:20078000CFEFDAE0DEBFCDBF29E0A0EDB6E001C01D92A139B207E1F716E0A0E0B1E0E6EED6
:2007A000FEE502C005900D92A03DB107D9F713E0CDEBD3E004C02197FE010E942E2ECC3B1D
:2007C000D107C9F70E94F5200C94662F0C940000CF93DF93FC0181819091FF07482F490F2C
:2007E0005527551F483051059CF5A281B381109709F52BEF37E03383228320812093FD07CA
:200800008093FE0780910008820F808320910108A22FB09102088A2F821B8917E8F4818169
:200820003D91C82FD0E0CE59DA4F38838F5F8183F2CFD90118962D913C9119972115310556
:20084000C1F72BEF37E019963C932E931897D5CF80E0DF91CF91089581E0FBCF91E0909391
:2008600087078093A907109288071092AA07089528E030E040E8E0918108F09182085081F0
:2008800090918808909595239083E0917F08F091800890918708582F542389F05081952BFE
:2008A0009083E0918108F0918208908150918808952B9083469521503109E9F608955081F8
:2008C00090959523EDCF90915A07809159072FEF3FEF981748F4E92FF0E0E75CF84F208142
:2008E00030E09F5F90935A07C901089590915A07809159072FEF3FEF981748F4E92FF0E0ED
:20090000E75CF84F208130E09F5F90935A07C90108950895089583E08093E9008091F20017
:20092000882319F08AE38093E8000895FC0180913407882311F13FB7F89482E08093E90028
:200940002091F200822F90E01816190614F481E090E0882339F0289844E640933307409111
:20096000F1004083222339F02091F200211103C02BE62093E8003FBF08958FEF9FEF0895CD
:2009800008950C948B0440912B0750912C072091290730912A0742175307B4F49091E8003D
:2009A0009570E1F39091E80092FD19C08093F10080912B0790912C0701968F739927892B45
:2009C00019F48EEF8093E80080912B0790912C07019690932C0780932B0781E0089580E06B
:2009E0000895DF92EF92FF920F931F93CF93DF93D82E8A01EB017B01E40EF51ECE15DF05EA
:200A000059F0D7FE12C0FE0184910E94C30421968111F4CF0FEF1FEFC801DF91CF911F9108
:200A20000F91FF90EF90DF9008958881EECF2FB7F89487708093E9009091E800892F80721E
:200A400095FF04C09091F20080E4891B2FBF0895615030F02091F100FC0120830196F8CF27
:200A6000289884E6809333070895AF92BF92CF92DF92EF92FF920F931F93CF93DF936C0157
:200A80007B018B01040F151FEB015E01AE18BF08C017D10759F06991D601ED91FC910190CA
:200AA000F081E02DC6010995892B79F7C501DF91CF911F910F91FF90EF90DF90CF90BF901E
:200AC000AF9008958091210781110DC082E080931D0784E080931E071092200710921F07DC
:200AE00081E0809321078DE197E008950F931F93CF93DF931F92CDB7DEB782E0898342E452
:200B000050E064E676E080E80E94F1040E946205DC0112960D911C910115110589F0D801AF
:200B2000ED91FC910280F381E02DBE016F5F7F4FC801099597FD04C0F80100851185ECCFBE
:200B400089810F90DF91CF911F910F910895CF93DF931F92CDB7DEB76983DC01ED91FC91BD
:200B60000280F381E02D41E050E0BE016F5F7F4F09950F90DF91CF91089583E00E941705FB
:200B800090E00895CF93DF931F92CDB7DEB7FC018485958597FD08C02FEF3FEF358724877B
:200BA0000F90DF91CF910895CE0101960E949604019719F4898190E0F3CF8FEF9FEFF0CFDB
:200BC0000F931F93CF93DF931F92CDB7DEB78C01FC018485958597FF0BC0CE0101960E940D
:200BE0009604019771F4898190E0F80195878487F801848595850F90DF91CF911F910F91E9
:200C000008958FEF9FEFF1CFFC018485958597FD0BC09FB7F89482E08093E9008091F200A9
:200C20009FBF90E0019608959FB7F89482E08093E9008091F2009FBF90E0089581508F3074
:200C400008F047C0E82FF0E0E85DF94F0C942E2E4506490637063D06410669066906690677
:200C60004C06520656065A06600669066406809180008F77809380000895809180008F7D6B
:200C8000F9CF80918000877FF5CF84B58F7784BD089584B58F7DFBCF809190008F7780934B
:200CA00090000895809190008F7DF9CF80919000877FF5CF8091C0008F778093C0000895E0
:200CC0008091C0008F7DF9CF8091C200877F8093C2000895CF93DF93282F30E0F901EB5BA9
:200CE000F94F8491F901E55DF84FD491F901E85AF84FC491CC23A1F081110E941E06EC2FE4
:200D0000F0E0EE0FFF1FE95CF94FA591B491EC91ED2381E090E009F480E0DF91CF910895B8
:200D200080E090E0FACF1F93CF93DF93282F30E0F901EB5BF94F8491F901E55DF84FD491A8
:200D4000F901E85AF84FC491CC23A9F0162F81110E941E06EC2FF0E0EE0FFF1FE65BF84F08
:200D6000A591B4918FB7F894EC91111108C0D095DE23DC938FBFDF91CF911F910895DE2B76
:200D8000F8CFCF93DF9390E0FC01E55DF84F2491885A984FFC0184918823C9F090E0880FC7
:200DA000991FFC01E752F94FA591B491FC01E65BF84FC591D49161110DC09FB7F8948C9104
:200DC000209582238C938881282328839FBFDF91CF910895623051F49FB7F8943C91822F99
:200DE000809583238C93E8812E2BEFCF8FB7F894EC912E2B2C938FBFEACF3FB7F894809198
:200E0000190790911A07A0911B07B0911C0726B5A89B05C02F3F19F00196A11DB11D3FBF3E
:200E2000BA2FA92F982F8827BC01CD01620F711D811D911D42E0660F771F881F991F4A953A
:200E4000D1F708958F929F92AF92BF92CF92DF92EF92FF926B017C010E94FD064B015C012E
:200E6000C114D104E104F104B9F00E94FD06681979098A099B09683E73408105910580F37E
:200E800021E0C21AD108E108F10888EE880E83E0981EA11CB11CE4CFFF90EF90DF90CF907C
:200EA000BF90AF909F908F9008954F925F926F927F92BF92CF92DF92EF92FF920F931F934C
:200EC000CF93DF93CDB7DEB729970FB6F894DEBF0FBECDBF8C0122273327B02ED72E780192
:200EE00010E000E0F8E0CF2E80914808909149080817190708F006C180914E084D2D5B2D13
:200F0000882351F08E9D90018F9D300D1124532F8D9DC0011124492FE091540880914F083C
:200F20009091500820915108E213A8C09801220F331F200F311F820F931FE0915108E80F32
:200F4000F92FF11D5083E0915208E80FF92FF11D408320915308820F911DFC0110828091E2
:200F60004F0890915008892B09F47FC0409055085090560860905708709058080E94FD06F2
:200F8000641575058605970550F40E94FD06609355087093560880935708909358080E9406
:200FA000FD064090550850905608609057087090580864197509860997096C327140810515
:200FC0009105A0F2F89480914A0890914B089A838983E0914F08F0915008DF011196808134
:200FE000898790914608E0915908F0915A0880915B08992309F44EC09081982B988790817E
:20100000809589238F838F818C83CB8258856F8149853B812C8189819A81508347FD252FFD
:201020003A952083262F39F0441F00C000006083000000C0F2CF38E04D91608300000197C8
:2010400061F7F0935A08E093590849873B832C839A83898378940E94FD0660935508709315
:201060005608809357089093580862E370E080E090E00E9422070F5F1F4F36CF9801220F42
:20108000331F220F331F820F931FE80FF92FF11D108253CF9081982B988790818095892392
:2010A0008F838F818E83CD8258856F8149853D812E8189819A81508347FD252F00C000C096
:2010C000208300C000C000C000C000C060830000262F3A9541F0441F000000C000C000C0D2
:2010E00000C000C0E8CF38E04D9100C0608300C0019709F7F0935A08E093590849873D837F
:201100002E83A6CF29960FB6F894DEBF0FBECDBFDF91CF911F910F91FF90EF90DF90CF90A7
:20112000BF907F906F905F904F90089561E084E00E94C10660E084E00E94930664EF71E056
:2011400080E090E00E94220760E084E00C94C1067F928F929F92AF92BF92CF92DF92EF92A1
:20116000FF920F931F93CF93DF93C82E8B017A0180913407811110C08FEF9FEFDF91CF912F
:201180001F910F91FF90EF90DF90CF90BF90AF909F908F907F90089580912F0780FF05C010
:2011A0008091E00082608093E000CE2DDF2DD12C8AEFB82E8C2D8770982E8C2D8072882E2F
:2011C0008C2D8074782E9AE3A92E209719F4DD2009F452C08C2D0E94170581110AC0BA9477
:2011E000BB2051F261E070E080E090E00E942207ECCF8C171D0611F00CF08C2F9FB7F8948A
:201200009092E9002091E80025FD02C09FBFDDCF282F30E0C21BD30B882029F08150A0F0F8
:201220001092F100FBCFF801C7FC0AC0815050F041914093F100FACF44914093F1003196FB
:201240008150D0F7020F131FDD2021F0A092E800D12CDCCF8091E80085FD07C0A092E80087
:20126000DD24D394209791F2F3CF209779F6772069F2A092E800CACF5D9884E680932E0798
:20128000C7017CCFEF92FF921F93CF93DF931F92CDB7DEB77C0180910C0881112AC011E0CA
:2012A0001093FF071093000885E098E09093020880930108109204081092030885E995E076
:2012C0009093FC078093FB071092070810920608109209081092080810930A0810930B08A2
:2012E00081EC809305080E9462050E94E80310930C0882E0898341E050E0BE016F5F7F4FFA
:201300008091FE070E94A80897FD08C08091FE0748E050E0B70180640E94A8080F90DF919E
:20132000CF911F91FF90EF900895CF93DF93EC0180910B01882331F083E00E94A808181665
:20134000190634F081E090E09B838A8380E090E0DF91CF9108952FB7F89460911507709191
:20136000160780911707909118072FBF0895FC01908190539A3008F090E0818180532AE054
:20138000929F800D11240895DC0150E0ECE2F6E081E0861730F49491490F511D8F5F31964A
:2013A000F8CF633038F0CD0183709927892B11F44F5F5F4F9D012D5F3F4F3695279536950B
:2013C00027956DE671E0A69FC001A79F900DB69F900D11240197820F931F840F951F0895DE
:2013E000DC01FB0112962C911297848195812817190641F491818081813A31F49D7F81E0E8
:20140000913009F080E008958132E1F79B3029F482811F968C9381E008959A3099F7828170
:2014200050968C93F8CFDC01FB0188E4808389E4818384E482831D969C911D979F709F5B1D
:2014400093831D968D919C9124E0969587952A95E1F78F708F5B848385E00895EF92FF9292
:201460000F931F93CF93DF93FB012081213871F52381223259F5DC0112964C9124813581E5
:201480004217130619F5EC010B851C85F12CE12C0115110589F0F801448155816281738174
:2014A00080E80E94F1048F3F980749F0E80EF91ED8010D911C91ECCF81E08F87C701DF91EC
:2014C000CF911F910F91FF90EF90089590E080E0F6CFCF93DF93CDB7DEB769970FB6F894DE
:2014E000DEBF0FBECDBFFC01DB018C918F5F8C939E012D5F3F4F8DE0D9011D928A95E9F745
:2015000029E0298384E08A8391E09D8383E08E832A8721E22B879C879D879F8722E2288B16
:2015200027E02B8B25E02C8B8E8B20E430E0388F2F8B998F82818B8395858685998B8A8BED
:20154000838180688D8B49E150E0BE016F5F7F4F80E00E94F10469960FB6F894DEBF0FBE21
:20156000CDBFDF91CF910895CF92DF92EF92FF920F931F93CF93DF936C01EB017B01E40E9F
:20158000F51E10E000E0CE15DF0581F069916D30D1F3D601ED91FC910190F081E02DC6011D
:2015A0000995892B19F00F5F1F4FEDCFC801DF91CF911F910F91FF90EF90DF90CF900895D6
:2015C000DC016838A0F06858FD0186E0662321F09681961301C01682815031968111F6CF38
:2015E000CD0104960E94420981E090E00895E62FF0E067FF12C0E058F10981E090E001C047
:20160000880FEA95EAF7809514969C911497892314968C93149760E0D7CFE455FA4F6491BF
:20162000662359F067FFD0CF14968C9114978D7F14968C9314976F77C7CF90E080E00895F8
:20164000DC01683888F1685816968C911697861721F117968C9117978617F9F018968C91E6
:2016600018978617D1F019968C9119978617A9F01A968C911A97861781F01B968C911B979F
:20168000861759F0FD01369690E080E02191211139C08A0F9B1FFC016683CD0104960E94AA
:2016A000420981E090E00895E62FF0E067FF11C0E058F10921E030E001C0220FEA95EAF7C0
:2016C00014968C911497822B14968C93149760E0BBCFE455FA4F6491611109C081E090E02A
:2016E00013969C938E93129790E080E0089567FFABCF14968C911497826014968C93149733
:201700006F77A2CF01968630910509F0BFCFE6CFEF92FF921F93CF93DF93EC01162F0E94E7
:20172000200B7C01612FCE010E94E00AC7019927DF91CF911F91FF90EF9008950F931F930F
:20174000CF93DF93EC018E89823009F453C0833009F4ACC0813009F05CC0EC81FD81E41B23
:20176000F50BAF01421B530B77FD3FC08E819F8168177907D4F557FF04C0240F351F50E0C3
:2017800040E08C819D81FA01E20FF31F8E179F071CF49C01241B350B1216130634F5FB0123
:2017A00077FD3796A3E0F595E795AA95E1F7F695FE2FEE27F795E795E40FF51FEE59FE4FD8
:2017C0006770772781E090E001C0880F6A95EAF7482F0130110509F472C008F47CC02E0F29
:2017E0003F1F0230110509F483C0DF91CF911F910F910895AC81BD81CD01861B970BBC010D
:2018000061507109EE81FF81E41BF50BAF01421B530B77FDEACF8C819D81681779072CF7CA
:2018200057FF04C0240F351F50E040E08E819F81FA01E20FF31F8E179F071CF49C01241B53
:20184000350B121613068CF6922FA42FA695A695A69580E8A89FD0011124A60FB71FAE59F9
:20186000BE4F477009F457C058E0541B452F652F70E0FB01E958FA4F8081251708F0B0C066
:20188000621B71092FEF30E002C0359527956A95E2F7822301301105A9F108F464C002302B
:2018A000110509F0A2CF2C9182272EC0AE81BF81CD01861B970BBC016150710955CF2E0F8B
:2018C0003F1FE217F30709F490CF8191DF011197842B8C93F6CF80952E0F3F1FE217F3078B
:2018E00009F483CF9191DF01119798239C93F6CFE217F30709F479CF8191DF0111978427C3
:201900008C93F6CF2C91822B8C93941708F46DCF941BA058BF4F983008F447C002301105AF
:2019200031F5FD01892F208120952083E058FF4F88508830C0F728EF290F26952695269585
:2019400030E02F5F3F4F3695322F222737952795A20FB31F977009F448CFE92FF0E0E1599E
:20196000FA4F808132C080952C918223CDCF81E00130110509F080E08195FD01292F8083A8
:20198000E058FF4F28502830D0F728EF290F26952695269530E02F5F3F4F3695322F222709
:2019A00037952795A20FB31F9770992309F41DCFE92FF0E0E159FA4F80810130110541F08C
:2019C00058F00230110509F010CF9C91892702C09C91892B8C9309CF80959C918923FACF71
:2019E0000130110509F48ECF08F4BDCF0230110509F459CF8DCF0F931F93CF93DF93EC01E0
:201A00008E89823009F45EC0833009F4B5C0813009F067C0AC81BD81CD01841B950BAC01C7
:201A20004150510957FD49C08C819D81481759070CF043C077FF04C0260F371F70E060E020
:201A40008E819F81FB01E20FF31F8E179F071CF49C01261B370B121613067CF5922FA62F95
:201A6000A695A695A69580E8A89FD0011124A40FB51FAE59BE4F677009F48FC048E0461BB9
:201A8000642F70E0FB01E958FA4F8081241708F002C1621B71092FEF30E002C03595279579
:201AA0006A95E2F782230130110509F46DC008F49CC00230110509F4F8C0DF91CF911F9163
:201AC0000F910895EC81FD81E61BF70BAE81BF81CD01841B950BAC0141505109BF01621B8A
:201AE000730B57FDEACF8E819F81481759072CF777FF04C0260F371F70E060E08C819D81CA
:201B0000FB01E20FF31F8E179F071CF49C01261B370B121613068CF6FA0157FD379693E0F9
:201B2000F595E7959A95E1F7F695FE2FEE27F795E795E60FF71FEE59FE4F4770552781E090
:201B400090E001C0880F4A95EAF7482F0130110509F488C008F492C02E0F3F1F02301105C9
:201B600009F0ABCFE217F30709F4A7CF8191DF01119784278C93F6CFEE81FF81E61BF70B71
:201B8000BF01621B730B4ECF2C91822B8C93941708F493CF941BA058BF4F983008F447C05B
:201BA0000230110531F5FD01892F208120952083E058FF4F88508830C0F728EF290F269531
:201BC0002695269530E02F5F3F4F3695322F222737952795A20FB31F977009F46ECFE92F8A
:201BE000F0E0E159FA4F808132C080952C918223CDCF81E00130110509F080E08195FD0177
:201C0000292F8083E058FF4F28502830D0F728EF290F26952695269530E02F5F3F4F3695D5
:201C2000322F222737952795A20FB31F9770992309F443CFE92FF0E0E159FA4F8081013080
:201C4000110541F058F00230110509F036CF9C91892702C09C91892B8C932FCF80959C91D0
:201C60008923FACF2E0F3F1FE217F30709F425CF8191DF011197842B8C93F6CF80952E0FF1
:201C80003F1F2E173F0709F418CF9191DF01119798239C93F6CF0130110509F475CF08F49A
:201CA000A4CF0230110509F075CF2C9182276ECFDC0177FD67C018968D919C9119976817E9
:201CC00079070CF05FC057FD5DC01A968D919C911B97481759070CF055C056968C91569785
:201CE0008230B9F0833041F1813049F414968D919C91841B950BAB01BC016150710921309D
:201D0000310521F108F43FC02230310509F458C008951496ED91FC911597E61BF70BBF0122
:201D20006150710916968D919C91FC01E41BF50BAF0141505109E3CF16968D919C91861BA0
:201D4000970BBA01AC0141505109D9CFFA0157FD3796A3E0F595E795AA95E1F7F695FE2F72
:201D6000EE27F795E795E60FF71FEE59FE4F4770552721E030E001C0220F4A95EAF78081B0
:201D8000822B80830895FA0157FD379623E0F595E7952A95E1F7F695FE2FEE27F795E79565
:201DA000E60FF71FEE59FE4F4770552781E090E001C0880F4A95EAF7809590818923E1CFE6
:201DC000FA0157FD379683E0F595E7958A95E1F7F695FE2FEE27F795E795E60FF71FEE5960
:201DE000FE4F4770552721E030E001C0220F4A95EAF780818227C5CF0895FC016370668B04
:201E00008481958126813781613039F0633029F0918780873387228708953187208793874A
:201E2000828708952F923F924F925F926F927F928F929F92AF92BF92CF92DF92EF92FF92BE
:201E40000F931F93CF93DF93CDB7DEB76A970FB6F894DEBF0FBECDBF9A8F898F7A836983CF
:201E60004A01D22E18870F833701BC2CDC0159962D913C915A972115310509F015C1189695
:201E80008D919C911997681779070CF0D7C11A968D919C91481759070CF0D0C14C2C512C78
:201EA000B6E0CB9E600D711D11247C876B87161617060CF0C3C1EA2DF0E0FA87E98793E0EA
:201EC000EE0FFF1F9A95E1F7F88BEF87CF01840F951F181619060CF0B1C1A98DBA8D5896AA
:201EE0008C91811104C0BFEABD1508F4D394A98DBA8DED91FC9111970284F385E02DCD0188
:201F00000995B5E0DB9EC0011124E981FA81FC83EB83312C212C9C0124553F4F388F2F8B7E
:201F20004A2D50E05E8B4D8BEF89F88DE20DF31D44919E828D82D12CC12C69817A81620DFB
:201F4000731D7A8B698B842F90E09C8B8B8BE98DFA8DA081B18140FF82C0F1E0BF126FC0F6
:201F6000AF126DC01C96ED91FC912F813885A4014C0D5D1D69897A89898D9A8D0995EB898D
:201F8000FC89F595E7954E2F5FEFC51AD50A6D817E818D899E89680F791F7E836D8398E08B
:201FA000C916D10481F6AFEF2A1A3A0AEB81FC81E40DF51DFC83EB83F5E02F16310409F0AF
:201FC000B3CF2F81388526153705B9F0A98DBA8DED91FC91B1E0BB1257C0AB1255C0698139
:201FE0007A816B5F7F4F0088F189E02D830128E030E0A401898D9A8D0995A98DBA8DED9128
:20200000FC9111970688F789E02DCD016A960FB6F894DEBF0FBECDBFDF91CF911F910F913B
:20202000FF90EF90DF90CF90BF90AF909F908F907F906F905F904F903F902F9009941E962D
:20204000ED91FC91EF80F88409851A8592014D815E816B817C81898D9A8D099590CF2F814A
:2020600038852615370509F48ACF31E0B31207C0A31205C01C96ED91FC91930178CF1E9673
:20208000ED91FC917301E0CF6B857C85641975090684F785E02D73010F8518899201A40132
:2020A000898D9A8D0995A9CFF90134969491329745915491D91AB7E0DB9E400D511D11246D
:2020C000F901259134913C8B2B8BFA0125903490FA013296749031963491398B32966490C7
:2020E0003196449041E04C1518F04A1508F07FC0662D062C000C770B7C836B83842D042C04
:20210000000C990B9E838D83A98DBA8DED91FC9111970284F385E02DCD010995512CD12CBD
:20212000C12CEA2DF0E0FA87E9872B2D30E03C872B87A401440D511D47FC5A95588F4F8BA6
:2021400069817A81660D711D67FC7A957E876D877989C71608F051CF2C2D30E04D815E8121
:20216000420F531FA985BA854A9FC0014B9F900D5A9F900D1124FC01E80DF91DF88BEF8732
:20218000852D612C4F89588D420F531F5E8B4D8B671408F050C044244394480E877041F47B
:2021A000C1010196EB89FC89E20DF31DD4901C01D7FE19C0A98DBA8DED91FC91662D70E034
:2021C000B1E0BB1219C0AB1217C02D853E85620F731F0484F585E02D2F8138854D895E8983
:2021E000898D9A8D0995DD0C6394842DD1CF1E821D821C821B8288CF4B815C81640F751F52
:20220000AB85BC856A9FC0016B9F900D7A9F900D112469817A81680F791F0684F785E02DEA
:20222000EF80F88409851A859D014F855889898D9A8D0995D8CF570CC3948ACF6A960FB6D9
:20224000F894DEBF0FBECDBFDF91CF911F910F91FF90EF90DF90CF90BF90AF909F908F9024
:202260007F906F905F904F903F902F9008958F929F92AF92CF92EF92FF920F931F93CF939B
:20228000DF93EC01262F898D9A8D009709F051C06A30D1F41D861C868D8948E0849F900116
:2022A00011248E859F85820F931F9F878E8781E090E0DF91CF911F910F91FF90EF90CF90D6
:2022C000AF909F908F9008956D3089F3CC88AD888F898823C1F08C859D8536E0C39E800D87
:2022E000911D1124488559854817590764F44E855F851D861C8638E0A39EC0011124840F5B
:20230000951F9F878E87EA88FB88088919894E855F856C857D85CE010E94120F2C898C85A4
:202320009D8546E0249F800D911D11249D878C87BECF6A3069F41D861C86FC013696E491E4
:202340002D898E859F85E29F800D911D1124ADCF6D3009F4ACCFFC0134963491631708F40C
:20236000A6CF3196E491E61708F4A1CFFC01329685909490462F431B342F47E0349F800C89
:20238000911C1124F401329634913196E4913323A9F1EE2399F1CC88F4013596E491AD8854
:2023A0004F89442301F10E2E000CFF0BE30FF11DCE9EA001CF9E500D11246C857D85460F46
:2023C000571F68857985641775076CF44E855F851D861C86FC013696E491AE9E400D511D04
:2023E00011245F874E87EA88FB88088919894E855F856C857D85CE010E94120FF4013496CA
:20240000E4912C898C859D85E29F800D911D11248DCF682F8CE598E00C9437116F927F9298
:202420008F929F92AF92BF92CF92DF92EF92FF920F931F93CF93DF93EC016B015A013901BE
:202440004801E881F9810284F385E02D0995E881F9810288F389E02D87019301A501B60138
:20246000CE010995A501480D591D41505109E881F9810288F389E02D9301B601CE010995E5
:20248000E881F9810088F189E02D9401A501B601CE010995C60CD71CB60161507109E881DB
:2024A000F9810088F189E02D9401A501CE010995E881F9810688F789E02DCE01DF91CF914E
:2024C0001F910F91FF90EF90DF90CF90BF90AF909F908F907F906F9009946F927F928F9216
:2024E0009F92AF92BF92CF92DF92EF92FF920F931F93CF93DF935C01EB016A0149013801D6
:202500008701DC01ED91FC916217730719F5641675062CF0962D872D3A01C92ED82E9601F3
:20252000261937092F5F3F4F048CF58DE02DA301BE01C5010995DF91CF911F910F91FF906B
:20254000EF90DF90CF90BF90AF909F908F907F906F9008954615570591F42617370724F0DC
:20256000892D4B01C22FD82F9E01281939092F5F3F4F068CF78DE02DA601B401DACF028475
:20258000F385E02D0995D501ED91FC910488F589E02D83019401A601BE01C5010995D50167
:2025A000ED91FC910688F789E02DC501DF91CF911F910F91FF90EF90DF90CF90BF90AF90A5
:2025C0009F908F907F906F900994EF92FF920F931F93DC011A960D911C911B9718962D91A6
:2025E0003C911997ED91FC9100A0F1A1E02D7B0150E040E070E060E009951F910F91FF903B
:20260000EF9008954F925F926F927F928F929F92AF92BF92CF92DF92EF92FF920F931F939E
:20262000CF93DF936C012B015A0139014801DC01ED91FC910284F385E02D0995E201640C6B
:20264000751CD601ED91FC91C615D7055CF40088F189E02D87019401A501BE01C60109950A
:202660002196EFCF0688F789E02DC601DF91CF911F910F91FF90EF90DF90CF90BF90AF9079
:202680009F908F907F906F905F904F9009948F929F92AF92BF92CF92DF92EF92FF920F9309
:2026A0001F93CF93DF93EC015B014A016901E881F9810284F385E02D099595012C0D3D1DE1
:2026C00021503109E881F9810488F589E02D78018401A401B501CE010995E881F98106881E
:2026E000F789E02DCE01DF91CF911F910F91FF90EF90DF90CF90BF90AF909F908F90099409
:202700008F929F92AF92BF92CF92DF92EF92FF920F931F93CF93DF93EC015B014A016901CB
:202720007801E881F9810284F385E02D0995C80CD91C860101501109E881F9810488F589EC
:20274000E02D9501A401B501CE010995E881F9810688F789E02DCE01DF91CF911F910F9121
:20276000FF90EF90DF90CF90BF90AF909F908F900994EF92FF920F931F93DC01ED91FC91B6
:2027800000A0F1A1E02D09951F910F91FF90EF9008950F931F93DC01ED91FC91068CF78D0F
:2027A000E02D09951F910F9108950F931F93DC01ED91FC91048CF58DE02D09951F910F9138
:2027C0000895DC01ED91FC910084F185E02D09942F923F924F925F926F927F928F929F9208
:2027E000AF92BF92CF92DF92EF92FF920F931F93CF93DF9300D000D000D0CDB7DEB73C0175
:202800006A013E832D83FC82EB825801A41AB50AB7FE03C0B194A194B1088D809E80861AA5
:20282000970A97FE03C09194819491088A149B045CF0902F812F0D811E819D838E839C2DAD
:202840008D2D6B01692F782F0C151D055CF09D818E817E836D83692F782F902F812F860131
:20286000C92ED82E1601201A310A2B012D813E81421A530A57FE03C05194419451087101E0
:2028800037FE03C03FEFE31AF30AF594E7948D819E81861797075CF5A1E0B0E0BA83A983E1
:2028A000C016D1064CF1D301ED91FC910484F585E02D2B813C81A8016D817E818A149B0404
:2028C0001CF04D815E81B801C3010995E418F508F7FE0AC02D813E8189819A81280F391F4B
:2028E0003E832D83E20CF31C0F5F1F4FD9CF2FEF3FEF3A832983D4CF26960FB6F894DEBFE4
:202900000FBECDBFDF91CF911F910F91FF90EF90DF90CF90BF90AF909F908F907F906F9078
:202920005F904F903F902F90089508952091F106260F3327331F21323105ECF420918107D6
:20294000FC0190E080E0243069F082E00895A091F1062191AC014F52594FA40FB52FB11DC9
:202960002C930196861798F38091F106680F6093F10680E0089581E008951092810781E0EA
:202980008093800710925B0761E082E00E94930661E083E00E949306E9EBF0E080818E7F2A
:2029A000808380818D7F808388E48093B80085E48093BC00089510925A0710925907109251
:2029C00088071092AA070E94BD1489E894E090933807809337078AE894E0909336078093B1
:2029E00035070895CF93DF9391E09093D0068823B9F0C091B800D091BA008091BC008A7B76
:202A00008093BC0060E082E00E94930660E083E00E9493060E94BD14D093BA00C093B80091
:202A2000DF91CF910895CF92DF92EF92FF920F931F93CF93DF93D091AA0781E0D13208F0AF
:202A40009CC0C091A9070E94FD066B017C018091810781116CC082E08093810781E08093C3
:202A600080078FEF80937F0710927E07D0937D07A9E8B7E0EDE5F7E080E0D8138DC010929F
:202A80005C0780915C07CC0FC82BC0935C0780915B07813009F084C010925B070E94FD06D1
:202AA0006B017C0180915C078093BB008091830790918407A0918507B0918607892B8A2BB0
:202AC0008B2BA1F00E94FD06009183071091840720918507309186076C197D098E099F09EE
:202AE000061717072807390708F442C08091BC0083FDD8CF85EC8093BC000E94FD066B01E9
:202B00007C0180918107823009F44CC080917F078F3F09F469C080917F07803209F466C0ED
:202B200080917F07803309F463C084E026C08091830790918407A0918507B0918607892B5B
:202B40008A2B8B2B09F483CF0E94FD06009183071091840720918507309186076C197D0939
:202B60008E099F09061717072807390708F06FCF809182070E94F21485E0109288071092BC
:202B8000AA0710928707DF91CF911F910F91FF90EF90DF90CF9008959D9191938F5F6DCF3F
:202BA00085EEA9CF8091830790918407A0918507B0918607892B8A2B8B2B09F4A2CF0E9429
:202BC000FD06009183071091840720918507309186076C197D098E099F090617170728076C
:202BE000390708F08ECFC4CF80E0C7CF82E0C5CF83E0C3CFCF92DF92EF92FF920F931F9394
:202C0000CF93DF93D82FC62F613208F098C00E94FD066B017C018091810781116BC081E0BC
:202C200080938107809380079FEF90937F0710927E079C0F90937D0780935C0780915C07C5
:202C4000DD0FD82BD0935C0780915B07813009F078C010925B070E94FD066B017C018091C7
:202C60005C078093BB008091830790918407A0918507B0918607892B8A2B8B2BA1F00E94FF
:202C8000FD06009183071091840720918507309186076C197D098E099F09061717072807AB
:202CA000390708F448C08091BC0083FDD8CF85EC8093BC000E94FD066B017C018091810775
:202CC000813009F440C080917E078C1710F4C0917E07EDE5F7E0A9E3B7E080E08C1355C053
:202CE0008C2FDF91CF911F910F91FF90EF90DF90CF9008958091830790918407A09185077C
:202D0000B0918607892B8A2B8B2B09F484CF0E94FD0600918307109184072091850730918C
:202D200086076C197D098E099F09061717072807390708F070CF809182070E94F214C0E0F9
:202D4000CFCF85EEB5CF8091830790918407A0918507B0918607892B8A2B8B2B09F4AECF73
:202D60000E94FD06009183071091840720918507309186076C197D098E099F090617170757
:202D80002807390708F09ACFD6CF91919D938F5FA5CFE0915A0780915907E81730F4F0E0D4
:202DA000E75CF84F808190E008958FEF9FEF08958091590790915A07891B990B0895CF9299
:202DC000DF92EF92FF920F931F93CF93DF937C01CB018A0120918707222389F0EB016B011F
:202DE000C40ED51ECC15DD0569F06991D701ED91FC910190F081E02DC7010995F3CF642F4B
:202E00000E949614C801DF91CF911F910F91FF90EF90DF90CF900895CF93DF931F92CDB7FB
:202E2000DEB76983209187072223F9F02091AA07203258F021E030E0FC013383228390E0CF
:202E400080E00F90DF91CF91089580918807E82FF0E0E757F84F998190838F5F809388073D
:202E60008093AA0781E090E0ECCF61E0CE0101960E949614F7CFCF93C82F809179088F3F90
:202E8000B1F1E0918308F0918408808190918908892B8083E0918508F091860890818091EE
:202EA0008A08809589238083E0918308F091840890818091890880958923808380917E08A5
:202EC000882389F0CEBD00000DB407FEFDCF8EB5E0918308F0918408808190918908892BFE
:202EE0008083CF9108958C2F0E943804F1CF809177080E942E0460E08EE298E00E940C1728
:202F00006C2F8EE298E00E940C17CF910C9413159F92AF92BF92CF92DF92EF92FF920F93F8
:202F20001F93CF93DF9380E00E943B1780E10E943B1780E40E943B17809179088F3F09F4AD
:202F40006AC030EBF32ED0E0C0E08F2D0E943B1782E00E943B1780E10E943B1710E000E090
:202F6000CE018E599E4F6C01E0918308F0918408808190918908892B8083E0918508F0914F
:202F80008608808190918A08892B8083E0918308F0918408908180918908809589238083B8
:202FA0005601A00EB11E20E1E22EF50181915F0190917E08992361F18EBD00000DB407FEFE
:202FC000FDCF8EB5EA94E110F0CFE0918308F0918408808190918908892B8083005F1F4F74
:202FE0000038110509F0C0CFC058DF4FF394C115F4E0DF0709F0A9CFDF91CF911F910F910D
:20300000FF90EF90DF90CF90BF90AF909F9008950E943804D7CF9090B8008CE08093B800E7
:2030200090EBF92ED0E0C0E08F2D0E943B1782E00E943B1780E10E943B1710E000E0CE01A4
:203040008E599E4F5C01809177080E942E0460E48EE298E00E940C176501C00ED11E80E166
:20306000E82EF60161916F018EE298E00E940C17EA94E110F6CF0E941315005F1F4F003831
:20308000110509F7C058DF4FF394C115F4E0DF0759F69092B800B0CF0F931F93CF93DF93ED
:2030A000082F162FCAE3D8E089810E942E04602F8EE298E00E940C17612F8EE298E00E94FB
:2030C0000C170E9413158883DF91CF911F910F910895FF920F931F93CF93DF93F82E162F17
:2030E000072FCAE3D8E089810E942E046F2D8EE298E00E940C17602F8EE298E00E940C17D2
:20310000612F8EE298E00E940C170E9413158883DF91CF911F910F91FF90089590E080E081
:2031200008950E94FA1510925A078093590708951F93CF93DF93182FCAE3D8E089810E9450
:203140002E04612F8EE298E00E940C170E941315888362E089810E9491180E947604D82F71
:2031600080E0C82F0E9476048C2B9D2BDF91CF911F9108951F93CF93DF93182FCAE3D8E00E
:2031800089810E942E04612F8EE298E00E940C170E941315888361E089810E9491180E9407
:2031A0007604DF91CF911F910895CF93DF930E94AB097093400860933F0883E10E94BA18F1
:2031C0008770F1F480913C0890913D08892BA9F30E94AB0920913F0830914008621B730BB6
:2031E00080913C0890913D088617970730F781E080933E08CFEFDFEFCE01DF91CF91089530
:203200008EE10E949818EC0161E08BE00E944C18F3CF682F616080E00E944C180E94AB0978
:203220007093400860933F0883E10E94BA188770B9F480913C0890913D08892BA9F30E94E0
:20324000AB0920913F0830914008621B730B80913C0890913D088617970730F780E00895A4
:2032600061E08BE00E944C1860E080E00E944C1881E00895CF93DF93EC0181E00E94BA1862
:2032800084FB992790F9988383FB992790F99A8382FB992790F9998386FB992790F99B839D
:2032A000881F8827881F8C83DF91CF91089588E60E942E046FE08EE298E00E940C170E94B5
:2032C000131561E088E60E9491180E94760408952F923F924F925F926F927F928F929F924B
:2032E000AF92BF92CF92DF92EF92FF920F931F93CF93DF9300D000D000D0CDB7DEB71C018A
:203300007E836D8380E50E94BA188F5F880F90E0ED81FE819183808386E40E94BA18682E76
:20332000712CFFEF6F1A7F0AED81FE8175826482A081B0E020E03FE24AE350E00E942C2DFC
:203340004B015C01F4EF8F0EF1E09F1EA11CB11C98EEC92E93E0D92EE12CF12CC501B40190
:20336000A70196010E940C2ED3010E94342E69837A838B839C8320ED422E27E0522E612CB3
:20338000712CC501B401A30192010E940C2E69817A818B819C81620F731F841F951FA701F2
:2033A00096010E940C2EED81FE81228733874487558781E50E9498188C01112702C0000F55
:2033C000111F9A95E2F70F5F1F4FED81FE8117830683A081B0E020E03FE24AE350E00E94F8
:2033E0002C2D4B015C01F4EF8F0EF1E09F1EA11CB11CC501B401A70196010E940C2ED801C4
:203400000E942C2D69837A838B839C83C501B401A30192010E940C2E69817A818B819C81FF
:20342000620F731F841F951FA70196010E940C2EED81FE8126873787408B518B80E70E940F
:20344000BA188F5F880F90E0ED81FE819383828381E70E9498189C01992702C0880F991F75
:203460003A95E2F70196ED81FE8191878087F1012381222341F0ED81FE8126813781821B0C
:20348000930B91878087ED81FE81A281B0E020E03FE24AE350E00E942C2D6B017C01F4EF8A
:2034A000CF0EF1E0DF1EE11CF11C88EE482E83E0582E612C712CC701B601A30192010E9400
:2034C0000C2EED81FE81A085B1850E942C2D4B015C01C701B60120ED37E040E050E00E9431
:2034E0000C2EC501B401620F731F841F951FA30192010E940C2EED81FE81228B338B448B83
:20350000558B26960FB6F894DEBF0FBECDBFDF91CF911F910F91FF90EF90DF90CF90BF907D
:20352000AF909F908F907F906F905F904F903F902F9008950E94612FFB0101900020E9F738
:203540003197AF01461B570BDC01ED91FC910280F381E02D09948F929F92AF92BF920F9322
:203560001F93CF93DF93CDB7DEB7A1970FB6F894DEBF0FBECDBF19A2423008F44AE08E014B
:203580000F5D1F4F842E912CB12CA12CA50194010E940C2EE62FB901CA01EA3004F5E05D37
:2035A000D801EE938D01232B242B252B79F790E080E0109729F0BD018CE598E00E949C1A37
:2035C000A1960FB6F894DEBF0FBECDBFDF91CF911F910F91BF90AF909F908F900895E95C8F
:2035E000DFCF682F70E090E080E04AE00C94AB1A0F931F93CF93DF93EC010E949C1A8C01DD
:2036000067EE75E0CE010E949C1A800F911FDF91CF911F910F91089585ED8093BC0080918B
:20362000830790918407A0918507B09186070796A11DB11D23E0B695A795979587952A950F
:20364000D1F72091BC0024FD03C010928107089540918307509184076091850770918607B8
:20366000452B462B472B69F30097A105B10541F025E32A95F1F700000197A109B109E1CF1C
:20368000809182070C94F2141F920F920FB60F9211242F933F934F935F936F937F938F935F
:2036A0009F93AF93BF93CF93EF93FF93C091E1008091E100837F8093E100C3FF0FC0109281
:2036C000E90081E08093EB001092EC0082E38093ED001092340788E08093F000C2FF1AC0CC
:2036E0000E948B0480912E07882341F080912E07815080932E07811101C05D9A8091330783
:20370000882341F080913307815080933307811101C0289AC4FF23C08091E2008E7E8160C9
:203720008093E2008091E1008F7E8093E10080912F078E7E806180932F07FF91EF91CF91B4
:20374000BF91AF919F918F917F916F915F914F913F912F910F900FBE0F901F901895C0FFF3
:20376000ECCF8091E2008E7E80618093E2008091E1008E7E8093E10080912F078E7E816093
:20378000DACF1F920F920FB60F921124CF92DF92EF92FF920F931F932F933F934F935F93F3
:2037A0006F937F938F939F93AF93BF93EF93FF93CF93DF93CDB7DEB76C97DEBFCDBF10923E
:2037C000E9008091E80083FF25C068E0CE0145960E94280582EF8093E8008D8987FF39C0DE
:2037E0009091E80090FFFCCF982F907609F034C19E894F89588D2F89F88C911131C0803840
:2038000061F5809130078093F1001092F1008EEF8093E8006C960FB6F894DEBF0FBECDBFB2
:20382000DF91CF91FF91EF91BF91AF919F918F917F916F915F914F913F912F911F910F9108
:20384000FF90EF90DF90CF900F900FBE0F901F9018959EEF9093E800C7CF1092F100D5CFC0
:20386000913059F48111D3CF4130510581F6809130078D7F80933007CACF933049F48111FF
:20388000C6CF4130510519F6809130078260F2CF953041F48091E80080FFFCCF206820935A
:2038A000E300B5CF963009F0A9C00B8D1C8D22E01092E90010922C0710922B07F2122EC010
:2038C00010922A07109229070E9476051F8299E09983FA8291E09E8390EA98879AEF9987A0
:2038E00020912B0730912C07275F3F4F3C832B838D831092E90010922C0710922B07109389
:203900002A070093290749E050E0BE016F5F7F4F80E00E94F1040E94760579CF10932A07CF
:20392000009329070E946205DC0112960D911C910115110509F451C1D801ED91FC91048048
:20394000F581E02DBE016B5E7F4FC8010995009709F03EC1F80100851185EACFF3E0FF12E7
:203960000EC08F89882309F440C0823061F440E860E188EC96E00E945C1F811148CF81E236
:203980008093EB0047CF813029F440E86BE08CEB96E0F1CF833099F70E946205DC01129654
:2039A000ED90FC908E010F5F1F4F6801E114F10479F0D701ED91FC910680F781E02DB80130
:2039C000C7010995080F111DF701E084F184EECFD8011C92F60101900020E9F73197BF0117
:2039E0006C197D0940E0C601C6CF66EA76E0FB01449150E080E80E94F10409CF973009F4FE
:203A0000BECF983021F481E08093F10000CF993009F0FDCE837009F0B2CFE3E6F5E081E00F
:203A200031E096E32191222371F08093E9003093EB00DF0111972C912093EC009093ED0006
:203A40008F5F873079F78EE78093EA001092EA008F8980933407DBCE8B8D9C8D1092E90078
:203A600010922C0710922B0790932A0780932907898D811192C08E899D89913A49F4813214
:203A800009F07DCF47E050E064E071E080E0B3CF913209F074CF833269F48F89988DB0E035
:203AA000A0E08093000190930101A0930201B0930301ADCE803269F48091E80082FFFCCF01
:203AC00067E084E091E00E9428058BEF8093E8009ECE823209F09BCE8F8980930B01EEEFF0
:203AE000FFE7859194918B3F9C4D51F1E0E0F8E08091040190910501A0910601B09107015A
:203B0000803B9440A105B105F1F480910B0180FD1AC0EE3F8AE0F80789F587E797E791834D
:203B200080838091600080932D0788E19BE00FB6F894A895809360000FBE9093600067CE60
:203B4000EEEFFAE0D5CF808191818737974709F05ECEA8958091600088618093600080911B
:203B60002D0780936000EE3F2AE0F20789F08091FE0A9091FF0A9183808349CE8081918171
:203B80008737980751F29093FF0A8093FE0AC5CF1092FF0A1092FE0A3ACE0E946205DC0167
:203BA00012960D911C910115110509F4E8CED801ED91FC910190F081E02DBE016B5E7F4FEA
:203BC000C8010995811123CEF80100851185EBCF181619060CF41BCED2CEF1E0FF12BECEE9
:203BE0006AEA76E004CF1F920F920FB60F9211242F933F938F939F93AF93BF9380911507B2
:203C000090911607A0911707B09118073091140723E0230F2D3758F50196A11DB11D20931F
:203C200014078093150790931607A0931707B09318078091190790911A07A0911B07B09140
:203C40001C070196A11DB11D8093190790931A07A0931B07B0931C07BF91AF919F918F910C
:203C60003F912F910F900FBE0F901F90189526E8230F0296A11DB11DD2CF1F920F920FB631
:203C80000F9211242F933F934F935F936F937F938F939F93AF93BF93EF93FF938091B9000C
:203CA000887F803609F44AC0F0F5883209F4A7C018F5803109F49BC0B8F4882309F4F9C01A
:203CC000883009F494C0FF91EF91BF91AF919F918F917F916F915F914F913F912F910F90DC
:203CE0000FBE0F901F901895883109F488C0803251F780937F0714C0803409F49DC040F455
:203D00008033B9F38833F9F680937F0785ECB0C0803509F485C0883509F496C0883499F6CE
:203D20000E940C1BD0CF883909F48CC038F5883729F050F4883611F0803729F683E08093BD
:203D400081071092130757C0883809F47BC0803919F0803809F0B7CF80911307803208F042
:203D600071C0E091130781E08E0F809313078091BB00F0E0ED50F94F80833DC0803B39F057
:203D8000E0F4803A09F479C0883A09F09CCF84E0809381071092F2061092F106E091370758
:203DA000F091380709958091F10681110FC081E08093F1061092D10609C0803C09F4A6CF61
:203DC000883C09F4A3CF883B09F07DCFE091F20681E08E0F8093F206F0E0EF52F94F8081DC
:203DE0008093BB009091F2068091F10629C080915C078093BB0085EC8093BC0064CF909115
:203E00007E0780917D07981758F5E0917E0781E08E0F80937E07F0E0E35AF84F8081E9CFF3
:203E2000E0917E0781E08E0F80937E078091BB00F0E0E35AF84F808390917E0780917D0798
:203E40009817C8F285E8D8CFE0917E0781E08E0F80937E078091BB00F0E0E35AF84F808336
:203E60008091800781115CCF81E080935B0784EA8093BC001092810726CF85EC8093BC007B
:203E80001092810780911307803230F4E0911307F0E0ED50F94F10826091130770E0E091B9
:203EA0003507F091360783EF96E00995109213070ACF10927F0734CFEF92FF920F931F935C
:203EC000CF93DF93F82E192FE62E042F81E0860F880F0E94C30483E00E94C304CF2DD12F9B
:203EE000EC0EFD2EF11CCE15DF05B9F007FF13C0FE0184910E94C304182F80E00E94C304BA
:203F0000812321968111EFCFDF91CF911F910F91FF90EF9008958881EDCF81E0F5CFCF93DF
:203F20001092AE071092AD0788EE93E0A0E0B0E08093AF079093B007A093B107B093B20751
:203F400083E895E09093AC078093AB078FEF9FEF9093B8078093B70710922508109224088A
:203F600081EA95E0909323088093220880911A08811113C010921508109214088CEF96E0D0
:203F800090931708809316088FE290E0909319088093180881E080931A0880910C08811109
:203FA0002AC0C1E0C093FF07C093000885E098E09093020880930108109204081092030841
:203FC00085E995E09093FC078093FB0710920708109206081092090810920808C0930A0898
:203FE000C0930B0881EC809305080E9462050E94E803C0930C08E0910608F09107083097FB
:2040000009F0E1C084E198E0909307088093060880910808909109082091180830911908D0
:20402000820F931F9093090880930808109231081092300888EE93E0A0E0B0E080933208EB
:2040400090933308A0933408B09335088DEA95E090932F0880932E0882E091E0EBE8F8E006
:20406000DF019C011D9221503040E1F710925F0810925E0820E830E03093610820936008EB
:2040800080E490E090936308809362083093650820936408909367088093660810927208C3
:2040A000109269081092680810926B0810926A0881E080937108809370082FEF3FEF30932B
:2040C0006F0820936E0830936D0820936C08809373081092740810927608109275082FEBDC
:2040E00035E030935D0820935C089FEF9093790890937D0890937B0890937A0897E09093AD
:204100007C081092470810924E0810925508109256081092570810925808809354088093AE
:2041200051081092520892E0909353088093460883E090E090934B0880934A080E943C2E1F
:204140009093500880934F08009709F445C023E0DC011D922A95E9F781E090E0909349086E
:204160008093480886E090E090934D0880934C0880914708882341F061E086E00E94C106DB
:2041800060E086E00E949306EEE5F7E0E491F0E0EE0FFF1FE65BF84F8591949190935A08EC
:2041A00080935908E1E3F7E0E491E0935B0889E280933B0810923D0810923C0810923E082F
:2041C000CF910895FC01808191810097D9F784E198E0918380831CCF10924B0810924A08A3
:2041E0001092490810924808BDCFCF93DF93CDB7DEB7A1970FB6F894DEBF0FBECDBF7894D6
:2042000084B5826084BD84B5816084BD85B5826085BD85B5816085BD80916E0081608093B9
:204220006E001092810080918100826080938100809181008160809381008091800081606C
:204240008093800080919100826080939100809191008160809391008091900081608093E7
:2042600090008091C10084608093C1008091C10082608093C1008091C10081608093C10015
:204280008091C30081608093C3008091C00082608093C0008091C20081608093C200809173
:2042A0007A00846080937A0080917A00826080937A0080917A00816080937A0080917A0095
:2042C000806880937A00109234071092300710922F078091D70081608093D70080EA8093AB
:2042E000D80089B5806189BD89B5826089BD09B400FEFDCF61E070E080E090E00E94220768
:204300008091D8008F7C80618093D8008091E000807F8093E0008091E1008E7E8093E10008
:204320008DE08093E200559A209A8FEF9FEF9093B8078093B7070E94DB140E94DB1488E623
:204340000E942E040E941315082F811136C00E94571990E0880F892F881F990B892B09F433
:20436000DDC04BE050E060EF76E0CE0101960E94FF2BCE010A960E94B709F82EE981E154D8
:20438000E33108F02DC00E2E000CFF0BE653FE4D0C942E2E9227F021F021A627F021A827CA
:2043A000F021F021F021E721F021F0219927A427A227F021F021F021A0276AEE75E08BEA30
:2043C00097E00E94F81A0E948B040E94612F8A8111E0813629F08B8116E08E3609F017E0CD
:2043E000CE0105960E94B709E82E48E050E067EE76E0CE0101960E94FF2BCE0101960E949E
:20440000B709D82ECE0104960E94B709B82ECE0107960E94B709A82E88E60E942E0460E0FF
:204420008EE298E00E940C176AE0C62E8A2D6C2D0E94EC2D682F660F680F660F6A0D8EE2A7
:2044400098E00E940C178B2D6C2D0E94EC2D682F660F680F660F6B0D8EE298E00E940C17F6
:204460008D2D6C2D0E94EC2D682F660F680F660F6D0D8EE298E00E940C174E2D612F8F2D48
:2044800090E00E94C409069667E070E00E94F82D682F811101C067E08EE298E00E940C1765
:2044A0005AE0D52E8E2D6D2D0E94EC2D682F660F680F660F6E0D8EE298E00E940C17812FDF
:2044C0006D2D0E94EC2D682F660F680F660F610F8EE298E00E940C178F2D6D2D0E94EC2D61
:2044E000682F660F680F660F6F0D8EE298E00E940C170E9413150E945719182F88E60E9468
:204500002E046FE08EE298E00E940C17612F6F778EE298E00E940C170E9413150E9457196E
:20452000182F88E60E942E046FE08EE298E00E940C17612F677F8EE298E00E940C170E9431
:2045400013150E94AB09EBE8F8E050E040E022813381232B11F40C94AE2B4F5F5F4F70965D
:2045600040315105A1F789E80E94BA18682F616089E80E944C1860E088E80E944C1861E031
:2045800080E80E944C1861E08FEF0E944C1860E080E00E944C1881E90E94BA188093410808
:2045A00061E080E00E944C1860E08FEF0E944C1860E080E80E944C1880E60E94BA18682F71
:2045C000626180E60E944C1860E270E084E40E9469186FEF81E00E944C1861E080E80E947F
:2045E0004C1861E08FEF0E944C1860E080E00E944C1866E08FEF0E944C1883E80E94BA1843
:20460000682F646083E80E944C1867E08FEF0E944C1861E081E80E944C1861E080E80E9408
:204620004C186BE684E90E944C1860E083E80E944C180E94AB097093400860933F0883E85B
:204640000E94BA18811186C480913C0890913D08892BA9F30E94AB0920913F0830914008A8
:20466000621B730B80913C0890913D088617970730F784EF91E090933D0880933C0861E03E
:2046800080E80E944C1861E08FEF0E944C1860E080E00E944C186091410881E90E944C1897
:2046A00061E080E00E944C1860E08FEF0E944C1860E080E80E944C1862E080E00E944C1839
:2046C00062E08AE00E94C10662E089E00E94C10662E088E00E94C10661E08CE00E94C10688
:2046E00061E08DE00E94C10661E086E00E94C10682E0809378088CE380937708809179080B
:204700008F3F09F471C761E080917B080E94C10661E080917D080E94C10680917D08082E4C
:20472000000C990BFC01E85AF84FE491F0E0EE0FFF1FE65BF84F25913491309384082093DE
:204740008308FC01E55DF84FE491E093890880917B08082E000C990BFC01E85AF84FE4915A
:20476000F0E0EE0FFF1FE65BF84F259134913093860820938508FC01E55DF84FE491E0934C
:204780008A0880917E0881113EC061E0809179080E94C10661E080917A080E94C1068091D6
:2047A0007A08082E000C990BFC01E85AF84FE491F0E0EE0FFF1FE65BF84F259134913093E5
:2047C000820820938108FC01E55DF84FE491E093880880917908082E000C990BFC01E85A5E
:2047E000F84FE491F0E0EE0FFF1FE65BF84F259134913093800820937F08FC01E55DF84F04
:20480000E491E093870880917E08882309F439C01FB7F89480913107811127C0E9E6F7E01F
:204820008491ECE3F7E09491E82FF0E0EE0FFF1FE752F94FA591B491EC91E92321F461E0BB
:2048400081E10E94930661E081E10E94C1068CB580618CBD8CB580648CBD61E08FE00E9484
:20486000C10661E080E10E94C106809131078F5F809331071FBF8CB58C7F8CBD8DB581604E
:204880008DBD61E080917C080E94C10661E080917C080E94930661E070E080E090E00E947B
:2048A000220760E080917C080E9493066AE070E080E090E00E94220761E080917C080E9412
:2048C00093068EEA0E943B1785ED0E943B1780E80E943B1788EA0E943B178FE30E943B1745
:2048E00083ED0E943B1780E00E943B1780E40E943B178DE80E943B1784E10E943B1780E284
:204900000E943B1780E00E943B1781EA0E943B1788EC0E943B178AED0E943B1782E10E9418
:204920003B1781E80E943B178FEC0E943B1789ED0E943B1781EF0E943B178BED0E943B171F
:2049400080E40E943B1784EA0E943B1786EA0E943B178FEA0E943B1781E090E090936F0861
:2049600080936E0890936D0880936C0864EF71E080E090E00E94220761EC82E298E00E9485
:20498000200B61EC82E298E00E94E00A62E370E080E090E00E94220763E882E298E00E943E
:2049A000200B64EF71E080E090E00E94220762E782E298E00E94200B64EF71E080E090E027
:2049C0000E94220763E882E298E00E94E00A62E782E298E00E94E00A6DEF75E082E298E01B
:2049E0000E949C1A60EB82E298E00E94200B60EB82E298E00E94E00A64EF71E080E090E044
:204A00000E94220761E076E082E298E00E949C1A60EB82E298E00E94200B60EB82E298E0E5
:204A20000E94E00A64EF71E080E090E00E94220705E0B3E02B2E11E0ABE8EA2EA8E0FA2E8E
:204A4000D70112968D919C91892B09F444C00E94AB092B013C01F70186819781A085B185A5
:204A6000B301A201481B590B6A0B7B0B82859385A485B585481759076A077B0760F1028016
:204A8000F381E02DD70114968D919C910995882331F0F70186859785892B09F0A8C5D7014D
:204AA00013961C921E92129715961C921E921497F70116821782108611861A961D921D922E
:204AC0001D921C921D971F961C921E921E9751961C921E925097B0E1EB0EF11CEBE8EE1663
:204AE000E9E0FE0609F0ACCF88E60E942E0460E08EE298E00E940C170E94131567E088E6C7
:204B00000E94FA1510925A07809359070E9476048F77282F30E094E0359527959A95E1F7E4
:204B2000922F990F990F522E591A550C580E0E9476049C0144E0359527954A95E1F72F70F1
:204B40003327922F990F990F422E491A440C480E0E9476049C0154E0359527955A95E1F737
:204B60002F703327922F990F990F322E391A330C380E0E9476040E9476049C0164E0359510
:204B800027956A95E1F72F703327922F990F990F622E691A660C680E0E9476049C0174E070
:204BA000359527957A95E1F72F703327922F990F990F722E791A770C780E0E9476049C0189
:204BC000E4E035952795EA95E1F72F703327922F990F990F291BC22ECC0C8C0DC82ED12C92
:204BE0007601F0E3EF1AF8EFFF0AA2E6B1E0E0E0F4E01D923197E9F7209270082092710819
:204C0000109269081092680810926B0810926A08832D0E94F11A8AE30E940912842D0E946C
:204C2000F11A109370081093710880E20E94091280E20E94091280E20E940912852D0E9481
:204C4000F11A67EE75E08CE598E00E949C1A10926908109268088EE190E090936B088093B1
:204C60006A08B701FF0C880B990B4AE00E94AB1A8FE20E940912872D0E94F11A8FE20E9495
:204C80000912862D0E94F11A80E20E940912462D672DC6010E94C409069667E070E00E9468
:204CA000F82DACE0A89FB001A99F700D1124625F7E4F8CE598E00E949C1A67EE75E08CE567
:204CC00098E00E949C1A1092690810926808E8E2F0E0F0936B08E0936A0860E976E08CE55A
:204CE00098E00E949C1A88E60E942E0461E18EE298E00E940C170E94131562E088E60E9497
:204D0000FA1510925A07809359070E947604F82E0E947604BC01F6E075956795FA95E1F7B0
:204D200063707727072E000C880B990B0E940F2C20E030E040E85EE30E946E2C2B013C018F
:204D40006F2DFF0C770B880B990B0E940F2C9B01AC01C301B2010E94472D6B017C012B012B
:204D60003C01AC019B010E94E72D6EE976E081111BC046015701E894B7F82FEF3FEF4FE791
:204D80005FE7C501B4010E94E72D811139C42FEF3FEF4FE75FE7C501B4010E94082C1816C6
:204DA0000CF02EC462EA76E08CE598E00E949C1A6AEA76E08CE598E00E94F81A10926908C8
:204DC0001092680882E390E090936B0880936A086DEA76E08CE598E00E949C1A8AE30E94D4
:204DE00009120E94D518BC0190E080E04AE00E94AB1A66EB76E08CE598E00E94F81A0E9405
:204E000088178AE00E946A06892B09F069C061E08DE00E9493060E94D518883E934008F098
:204E200064C40E94D518CD9708F45FC4E2E6F1E080E094E011920197E9F700937008009312
:204E40007108109269081092680810926B0810926A080E94D518BC0190E080E04AE00E94A3
:204E6000AB1A1092690810926808A2E3B0E0B0936B08A0936A0882E080937008809371085F
:204E800066EB76E08CE598E00E94F81A0E94881760E070E08FEF90E00E94550788ECF82E77
:204EA00061E08CE00E94930661E070E080E090E00E94220760E08CE00E94930661E070E066
:204EC00080E090E00E942207FA94F110E9CF60E08DE00E94930660E070E0CB010E945507AE
:204EE00088E00E946A06FF24F394009709F4F12CF0920D012091320721110AC0892B41F082
:204F000060910C01612760930C018DE00E949306F0923207E0E0F0E0EF2B09F48DCD0E9405
:204F2000000087CD8B8114E0823709F459CA18E057CA8B8113E0823709F452CA15E050CA4B
:204F400019E04ECA1AE04CCA1BE04ACA1CE048CA12E046CA61E083E80E944C1882E90E9452
:204F6000BA18182F1F77D82EDD1CDD24DD1C60E081E80E944C1866E08FEF0E944C1883E8A5
:204F80000E94BA18682F83E80E944C1861E08FEF0E944C1861E080E00E944C1860E08FEF6B
:204FA0000E944C1860E080E80E944C1880913B080E942E0460EB8EE298E00E940C170E947B
:204FC000131580933A0866E080913B080E9491187E0127E1E20EF11C570187E0C82ECA94D8
:204FE000CC2031F00E947604D5018D935D01F7CF61E08FEF0E944C1860E08FE40E944C18F0
:205000006CE28EE40E944C1860E08FEF0E944C1864EB86EB0E944C189CE0D11001C090E0B2
:2050200080E061E070E0482F46954695469550E0F701E40FF51F2081E82FE770891710F099
:20504000101324C04E0D5F1DDB0102C0AA0FBB1FEA95E2F7FD01E0952E23FA0120838F5F99
:20506000803309F780913B080E942E0460EB8EE298E00E940C1717E0115091F0D7016D91AE
:205080007D018EE298E00E940C17F6CF30E002C035952795EA95E2F720FFE1CF0F5FDFCF85
:2050A0000E94131580933A0861E08FEF0E944C1860E080E00E944C1860E08FEF0E944C18A2
:2050C00060E089E00E944C1860E080E10E944C1860E081E10E944C1861E084E20E944C1825
:2050E0006FEF85E20E944C1860E085E70E944C1861E08FEF0E944C186CE28EE40E944C18A8
:2051000060E088E40E944C1860E280E30E944C1860E08FEF0E944C1869E080E30E944C18BC
:2051200060E084E50E944C1864E081E30E944C1863E082E30E944C1863E880E40E944C18AF
:2051400065E286E40E944C1860E080E60E944C1860E087E20E944C1866E080E50E944C188C
:2051600060E081E50E944C1866E982E50E944C1868E086E50E944C1860E387E50E944C1859
:2051800060E081E60E944C1860E082E60E944C1860E084E60E944C1860E085E60E944C1853
:2051A00060EA86E60E944C1861E08FEF0E944C1862E382E20E944C1864E187E40E944C1809
:2051C0006FEF89E40E944C1860E08AE40E944C1860E08FEF0E944C186AE08AE70E944C18C5
:2051E00060E08BE70E944C1861E288E70E944C1861E08FEF0E944C1864E383E20E944C18C8
:2052000060E082E40E944C186FEF84E40E944C1866E285E40E944C1865E086E40E944C18AA
:2052200060E480E40E944C1866E08EE00E944C186AE180E20E944C1860E483E40E944C18A2
:2052400060E08FEF0E944C1863E084E30E944C1864E485E30E944C1861E08FEF0E944C185F
:2052600064E081E30E944C1869E08BE40E944C1865E08CE40E944C1864E08DE40E944C184C
:2052800060E08FEF0E944C1860E084E40E944C1860E285E40E944C1868E087E40E944C1832
:2052A00068E288E40E944C1860E087E60E944C1864E080E70E944C1861E081E70E944C181F
:2052C0006EEF82E70E944C1860E086E70E944C1860E087E70E944C1861E08FEF0E944C18D6
:2052E00061E08DE00E944C1860E08FEF0E944C1861E080E80E944C1868EF81E00E944C18C9
:2053000061E08FEF0E944C1861E08EE80E944C1861E080E00E944C1860E08FEF0E944C18A0
:2053200060E080E80E944C1864E08AE00E944C1884E80E94BA18682F6F7E84E80E944C1835
:2053400061E08BE00E944C18CE014D960E943A19BE016F5F7F4FCE014D960E9468198D8DAA
:20536000882309F4F5C08B859C85AD85BE858C57924FAF4FBF4F2F8D222309F4EEC04B85DE
:205380005C856D857E854E545D4F6F4F7F4F440F551F661F771F840F951FA61FB71F28A1D0
:2053A000222361F04F85588969897A894C565D4F6F4F7F4F840F951FA61FB71F29A12223E2
:2053C00061F04B895C896D897E894A5D5D4F6F4F7F4F840F951FA61FB71F80934208909385
:2053E0004308A0934408B093450868EE81E00E944C18C0904208D0904308E0904408F09015
:205400004508B0E2CB16BEE4DB06E104F10408F4D2C0CE014D960E943A19BE016F5F7F4FDF
:20542000CE014D960E9468198D8D882309F4A2C08B859C85AD85BE858A5C944FAF4FBF4FF8
:205440002F8D222309F49BC04B855C856D857E854E545D4F6F4F7F4F440F551F661F771F91
:20546000840F951FA61FB71F18A1112361F04F85588969897A894C565D4F6F4F7F4F840FF5
:20548000951FA61FB71F29A1222309F494C02C013D01E6E24E0EE2E05E1E611C711CC414AE
:2054A000D504E604F70408F486C0AB81B0E020E03FE24AE350E00E942C2D4B015C01F4EF2B
:2054C0008F0EF1E09F1EA11CB11CA70196012419350946095709A8EEB3E00E942C2D2B015E
:2054E0003C01C501B40120ED37E040E050E00E940C2E420E531E641E751EC501B40128EE3D
:2055000033E040E050E00E940C2EC301B2010E940C2EB901112321F06F817885620F731F0A
:2055200061157105E9F161507109CB01B0E0A0E070E060E08C019D010027012B022B032B35
:2055400059F1B695A795979587956F5F7F4FF2CF86E39BE0A0E0B0E00ECF2E8D222309F407
:205560001ECF4B855C856D857E854C565D4F6F4F7F4F11CF88EE98E0A0E0B0E061CF2E8DF5
:20558000222309F471CF4B855C856D857E854C565D4F6F4F7F4F64CF762F6627682B792B6D
:2055A00081E70E946918C0924208D0924308E0924408F092450861E081E00E944C1880E47E
:2055C0000E940919882309F454C862E081E00E944C1880E00E940919882309F44AC868EE66
:2055E00081E00E944C1845C80E94DB144AC981E090E09787868746825782608671866BCAE4
:205600002FEF3FEF4FE75FE4C701B6010E94E22D18161CF466EA76E0C7CB2FEF3FEF4FE79D
:205620005FECC701B6010E94082C87FDF3CF20E030E0A901C701B6010E94082C87FF09C026
:205640008DE20E9409122601370177FA709477F870942AE037ED43EA5BE3C301B2010E9425
:20566000472D2B013C010E94B32D6B017C010E940D2C9B01AC01C301B2010E94462D2B0106
:205680003C014AE0C701B6010E94AB1A8EE20E94091220E030E040E251E4C301B2010E9410
:2056A0006E2C2B013C010E94B32D6B01F12CE12C4AE0C701B6010E94AB1AC701B6010E949E
:2056C0000D2C9B01AC01C301B2010E94462D20E030E040E251E40E946E2C0E94B32D90E027
:2056E00080E04AE00E94AB1A63CB0E94D518893E934008F4ECCBE2E6F1E080E094E011929F
:205700000197E9F782E08093700880937108109269081092680810926B0810926A0869EBF6
:2057200076E08CE598E00E94F81A1092690810926808A8E2B0E0B0936B08A0936A0867EC89
:2057400076E08CE598E00E94F81A0E94881760E07FEF80E090E00E945507B9CB20918B08D1
:2057600030918C082F5F3F4F30938C0820938B08232B31F421E030E030938C0820938B08FA
:20578000FA0124E0EE0FFF1F2A95E1F7E556F74F20918B0830918C08318320839A0144E028
:2057A000220F331F4A95E1F7F901E557F74F26E938E033832283158214826683778380879A
:2057C000918788E293E2A0E0B0E082879387A487B58781E090E0978786870C94B3228091B6
:2057E0004F08909150080E94D82E80914C0890914D0897FD03C060E00C94C1060895FB01BF
:20580000DC0102C005900D9241505040D8F708950E944A2C08F481E00895E89409C097FB3F
:205820003EF490958095709561957F4F8F4F9F4F9923A9F0F92F96E9BB279395F6958795BA
:2058400077956795B795F111F8CFFAF4BB0F11F460FF1BC06F5F7F4F8F4F9F4F16C088234B
:2058600011F096E911C0772321F09EE8872F762F05C0662371F096E8862F70E060E02AF0BF
:205880009A95660F771F881FDAF7880F9695879597F90895990F0008550FAA0BE0E8FEEFCD
:2058A00016161706E807F907C0F012161306E407F50798F0621B730B840B950B39F40A26C9
:2058C00061F0232B242B252B21F408950A2609F4A140A6958FEF811D811D08950E94812CE9
:2058E0000C94F22C0E94E42C38F00E94EB2C20F0952311F00C94DB2C0C94E12C11240C9465
:20590000262D0E94032D70F3959FC1F3950F50E0551F629FF001729FBB27F00DB11D639F1D
:20592000AA27F00DB11DAA1F649F6627B00DA11D661F829F2227B00DA11D621F739FB00D3D
:20594000A11D621F839FA00D611D221F749F3327A00D611D231F849F600D211D822F762F7C
:205960006A2F11249F5750409AF0F1F088234AF0EE0FFF1FBB1F661F771F881F915050405B
:20598000A9F79E3F510580F00C94DB2C0C94262D5F3FE4F3983ED4F3869577956795B795A9
:2059A000F795E7959F5FC1F7FE2B880F911D9695879597F9089597F99F6780E870E060E0B9
:2059C00008959FEF80EC089500240A941616170618060906089500240A94121613061406A1
:2059E00005060895092E0394000C11F4882352F0BB0F40F4BF2B11F460FF04C06F5F7F4F87
:205A00008F4F9F4F089557FD9058440F551F59F05F3F71F04795880F97FB991F61F09F3FE6
:205A200079F087950895121613061406551FF2CF4695F1DF08C0161617061806991FF1CF62
:205A400086957105610508940895E894BB2766277727CB0197F908950E94372DA59F900DAD
:205A6000B49F900DA49F800D911D11240895A29FB001B39FC001A39F700D811D1124911DA1
:205A8000B29F700D811D1124911D08955058BB27AA270E945E2D0C94F22C0E94E42C38F0FA
:205AA0000E94EB2C20F039F49F3F19F426F40C94E12C0EF4E095E7FB0C94DB2CE92F0E9484
:205AC000032D58F3BA17620773078407950720F079F4A6F50C94252D0EF4E0950B2EBA2FCD
:205AE000A02D0B01B90190010C01CA01A0011124FF27591B99F0593F50F4503E68F11A16BE
:205B0000F040A22F232F342F4427585FF3CF469537952795A795F0405395C9F77EF41F16CD
:205B2000BA0B620B730B840BBAF09150A1F0FF0FBB1F661F771F881FC2F70EC0BA0F621F8F
:205B4000731F841F48F4879577956795B795F7959E3F08F0B0CF9395880F08F09927EE0F10
:205B60009795879508950E940B2D88F09F5798F0B92F9927B751B0F0E1F0660F771F881F9D
:205B8000991F1AF0BA95C9F714C0B13091F00E94252DB1E008950C94252D672F782F8827FE
:205BA000B85F39F0B93FCCF3869577956795B395D9F73EF490958095709561957F4F8F4FA0
:205BC0009F4F08950E944A2C08F48FEF08950E944A2C880B990B0895991B79E004C0991F96
:205BE000961708F0961B881F7A95C9F780950895AA1BBB1B51E107C0AA1FBB1FA617B70775
:205C000010F0A61BB70B881F991F5A95A9F780959095BC01CD010895A1E21A2EAA1BBB1B4B
:205C2000FD010DC0AA1FBB1FEE1FFF1FA217B307E407F50720F0A21BB30BE40BF50B661F72
:205C4000771F881F991F1A9469F760957095809590959B01AC01BD01CF010895EE0FFF1F7E
:205C60000590F491E02D0994B7FF0C942C2D0E942C2D821B930B08950F931F93CF93DF93B6
:205C80008230910510F482E090E0E0918F09F091900930E020E0B0E0A0E0309799F4211519
:205CA000310509F44AC0281B390B24303105D8F58A819B816115710589F1FB019383828325
:205CC000FE0111C0408151810281138148175907E0F04817590799F4109761F012960C9330
:205CE000129713961C933296CF01DF91CF911F910F91089500938F0910939009F4CF2115EE
:205D0000310551F04217530738F0A901DB019A01BD01DF01F801C1CFEF01F9CF9093900975
:205D200080938F09CDCFFE01E20FF31F819391932250310939832883D7CF20918D09309121
:205D40008E09232B41F420916B0530916C0530938E0920938D092091690530916A052115AE
:205D6000310541F42DB73EB740916D0550916E05241B350BE0918D09F0918E09E217F307B7
:205D8000A0F42E1B3F0B2817390778F0AC014E5F5F4F2417350748F04E0F5F1F50938E09E9
:205DA00040938D09819391939FCFF0E0E0E09CCFCF93DF930097E9F0FC01329713821282A6
:205DC000A0918F09B0919009ED0130E020E01097A1F420813181820F931F20918D09309148
:205DE0008E092817390709F061C0F0938E09E0938D09DF91CF910895EA01CE17DF07E8F550
:205E00004A815B819E0141155105B1F7E901FB83EA8349915991C40FD51FEC17FD0761F42C
:205E2000808191810296840F951FE90199838883828193819B838A83F0E0E0E012968D91C7
:205E40009C9113970097B9F52D913C911197CD010296820F931F20918D0930918E0928176C
:205E6000390739F6309751F51092900910928F09B0938E09A0938D09BCCFD383C2834081A7
:205E80005181840F951FC817D90761F44E5F5F4F88819981480F591F518340838A819B81CA
:205EA000938382832115310509F0B0CFF0939009E0938F099ECFFD01DC01C0CF13821282BC
:205EC000D7CF81E090E0F8940C94662F13E0CDEBD3E004C0FE010E942E2E2196CE3BD107D3
:205EE000C9F7F894FFCFFFFFFFFF00E1000000000000010153756E64617900000000000035
:205F00004D6F6E6461790000000000005475657364617900000000005765646E657364610F
:205F2000790000005468757273646179000000004672696461790000000000005361747598
:205F4000726461790000000000000000000000000000000000000000000000000000000091
:205F6000000000000000000000000000000000000000000000000000000000000000000021
:205F8000000000000000008080800000000000000000000000000000008080C0C000000001
:205FA0000000000000000000000000000000000000000000000000000000000000000000E1
:205FC0000000000000000000000000000000000000000000000000000000000080C0E0F0B1
:205FE000F8FCF8E00000000000000000000000000000000000808080808000808000000055
:2060000000808080808000FFFFFF000000008080808000008080000080FFFF808000808085
:2060200000808080800080800000000000808000008C8E84000080F8F8F8800000000000DA
:206040000000000000000000F0F0F0F0F0F0F0F0F0F0F0F0E0E0C08000E0FCFEFFFFFF7FAA
:20606000FFFFFFFFFF0000000000000000000000000000FEFFC70101010183FFFF00007C60
:20608000FEC70101010183FFFFFF0038FEC78301010183C7FFFF000001FFFF010100FFFFED
:2060A0000701010100007FFF80000000FFFF7F0000FFFFFF000001FFFFFF0100000000005F
:2060C0000000000000000000030F3F7F7FFFFFFFFFFFFFFFE7C7C78F8F9FBFFFFFC3C0F016
:2060E000FFFFFFFFFFFCFCFCFCFCFCFCFCF8F8F0F0E0C0000103030303030103030000003E
:2061000000010303030301010301000000010303030301010303000000030300000003034B
:20612000000000000000000103030303030100000001030100000003030100000000000042
:20614000000000000000000000000080C0E0F0F9FFFFFFFFFF3F1F0F87C7F7FFFF1F1F3D10
:20616000FCF8F8F8F87C7DFFFFFFFFFFFFFFFF7F3F0F07003030000000000000000000001E
:20618000000000000000000000000000FEFEFC000000000000000000000000000000000007
:2061A0000000000000E0C000000000000000000000003030000000000000000000000000DF
:2061C000000000000000000000C0FEFFFFFFFFFFFFFFFFFF7F7F3F1F0F071F7FFFFFF8F80C
:2061E000FFFFFFFFFFFEF8E0000000010000000000000000FEFE000000FCFEFC0C06060EB5
:20620000FCF80000F0F81C0E0606060CFFFFFF0000FEFE00000000FCFEFC00183C7E66E64D
:20622000CE84000006FFFF0606FCFEFC0C0606060000FEFE0000C0F8FC4E4646464E7C78D6
:2062400040183C76E6CECC80000000000000000000000000000000000000000001070F1FFE
:206260001F3F3F3F3F1F0F030000000000000000000000000F0F0000000F0F0F0000000087
:206280000F0F000003070E0C18180C060F0F0F0000010F0E0C180C0F070100040E0C180CA6
:2062A0000F070000000F0F00000F0F0F0000000000000F0F00000007070C0C181C0C0606ED
:2062C00000040E0C180C0F0700000000000000000000000000000000000000000000000066
:2062E00000000000000000000000000000000000000000000000000000000000000000009E
:2063000000000000000000000000000000000000000000000000000000000000000000007D
:2063200000000000000000000000000000000000000000000000000000000000000000005D
:20634000000000000000000000C18081000000000091098000000103070F1F3F7F0080C02A
:20636000E0F0F8FCFE00000000A7059509BD05C1040406C205E00500000000F009690A2E3A
:206380000A130A00000000880BB40A8E189514000000000C17DF168E18C004D8166304C996
:2063A0001600000000371135058E189514580EC004E113B913D513C913E813C004FD0EFC82
:2063C0000E9E0BFB0C0213E5126D120E120D0A00436F756C646E27742066696E64205254B6
:2063E000432100636D6400666F72202F662022736B69703D3920746F6B656E733D312C321A
:206400002064656C696D733D3A2220256920696E2028276E6574736820776C616E20736842
:206420006F772070726F66696C6573272920646F20406563686F256A207C2066696E647351
:206440007472202D69202D76206563686F207C206E6574736820776C616E2073686F77206D
:2064600070726F66696C657320256A206B65793D636C6561720054656D7065726174757233
:20648000653A20006E616E00696E66006F76660020430044697374616E6365004D4D004F01
:2064A0007574206F662052616E67652100302D313230306D6D00FFFFFFFFFFFFFFFFFFFFE0
:2064C000FFFFFFFFFFFFFFFFFFFFFFFFFFFFFFFFFFFFFFFFFFFFFFFFFFFFFFFFFFFFFFFFDC
:2064E000FFFFFFFFFFFFFFFFFFFFFFFFFFFFFFFFFFFFFFFFFFFFFFFFFFFFFFFFFFFFFFFFBC
:20650000FFFFFFFFFFFFFFFFFFFFFFFFFFFFFFFFFFFFFFFFFFFFFFFFFFFFFFFFFFFFFFFF9B
:20652000FFFFFFFFFFFFFFFFFFFFFFFFFFFFFFFFFFFFFFFFFFFFFFFFFFFFFFFFFFFFFFFF7B
:2070000055C000006EC000006CC000006AC0000068C0000066C0000064C0000062C0000043
:2070200060C000005EC00000F2C400005AC0000058C0000056C0000054C0000052C00000EE
:2070400050C0000078C000004CC000004AC0000048C0000046C0000044C0000042C00000BE
:2070600040C000003EC000003CC000003AC0000038C0000036C0000034C0000032C0000048
:2070800030C000002EC000002CC000002AC0000028C0000026C0000024C0000022C00000A8
:2070A00020C000001EC000001CC0000011241FBECFEFDAE0DEBFCDBF11E0A0E0B1E0E2E3BC
:2070C000FFE702C005900D92A83AB107D9F711E0A8EAB1E001C01D92AE3BB107E1F78FD30B
:2070E00026C78ECFF89410926F0010928100109285001092840081E085BF15BE47985D9AEB
:20710000289A0C94000008952091B2013091B3012F5F3F4F3093B3012093B201932F37FFA6
:2071200003C08EEF831B982F990F921710F447980895479A08951F920F920FB60F9211246E
:207140002F938F939F93EF93FF9310928500109284008091A8019091A901009741F00197D3
:207160009093A9018093A801892B09F45D9A8091AA019091AB01009741F001979093AB0126
:207180008093AA01892B09F4289AE0E0F0E0859194918F5F9F4F49F08091AC019091AD0151
:2071A00001969093AD018093AC01FF91EF919F918F912F910F900FBE0F901F90189584E0BC
:2071C0008093E9000DC08091E8008B778093E80003C08EB3882351F08091E80082FFF9CFBE
:2071E0008091E80085FFEFCF8091F1000895982F83E08093E9008091E80085FD0DC0809136
:20720000E8008E778093E80003C08EB3882369F08091E80080FFF9CF9093F1005D9884E6CB
:2072200090E09093A9018093A80108954F925F926F927F928F929F92AF92BF92CF92DF921E
:20724000EF92FF920F931F93CF93DF9384E08093E9008091E80082FF57C2289884E690E067
:207260009093AB018093AA01AADF182F853481F48CE49DE19093AD018093AC0107B600FC4B
:20728000FDCFF999FECF81E180935700E89503C0843519F494DF8DE00DC28C34E1F38035F9
:2072A000D1F3843721F484E4A2DF80E003C2813611F489E5FFC18134B1F481DF182F7FDFE3
:2072C00090E0880F991FAA2797FDA095BA2F312F330F20E0442737FD4095542F822B932B68
:2072E000A42BB52BB8C1803711F483E5E3C1833549F4C0E0D1E089917ADF21E0C730D20714
:20730000D1F7D9C1863521F481E371DF80E3D2C1833731F487E86BDF85E969DF8EE1CAC149
:207320008536B9F4E0E0F0E093E085E090935700E89507B600FCFDCF80935700E89507B65D
:2073400000FCFDCFE058FF4FA0E7E030FA0771F7A2CF823739F4E1E0F0E089E08093570024
:207360008491A8C1863439F4E0E0F0E089E08093570084919FC18E3439F4E3E0F0E089E0E5
:2073800080935700849196C1813539F4E2E0F0E089E08093570084918DC1823631F489E521
:2073A00026DF80E024DF80E885C1823419F0873609F0E5C01092AD011092AC0100DF082FE8
:2073C000FEDEF82EFCDE682E8554823008F071C1902F80E0CF2DD0E0C82BD92B10926F00B3
:2073E000173609F04BC081E180935700E895DD24CC24C3943FC0E090AE01F090AF010091CC
